{
  "_format": "hh-sol-artifact-1",
  "contractName": "ACP",
  "sourceName": "contracts/Acp.sol",
  "abi": [
    {
      "inputs": [
        {
          "internalType": "uint256",
          "name": "_platformFee",
          "type": "uint256"
        }
      ],
      "stateMutability": "nonpayable",
      "type": "constructor"
    },
    {
      "anonymous": false,
      "inputs": [
        {
          "indexed": true,
          "internalType": "uint256",
          "name": "jobId",
          "type": "uint256"
        },
        {
          "indexed": true,
          "internalType": "address",
          "name": "depositor",
          "type": "address"
        },
        {
          "indexed": false,
          "internalType": "uint256",
          "name": "amount",
          "type": "uint256"
        }
      ],
      "name": "EscrowDeposited",
      "type": "event"
    },
    {
      "anonymous": false,
      "inputs": [
        {
          "indexed": true,
          "internalType": "uint256",
          "name": "jobId",
          "type": "uint256"
        },
        {
          "indexed": true,
          "internalType": "address",
          "name": "recipient",
          "type": "address"
        },
        {
          "indexed": false,
          "internalType": "uint256",
          "name": "amount",
          "type": "uint256"
        }
      ],
      "name": "EscrowReleased",
      "type": "event"
    },
    {
      "anonymous": false,
      "inputs": [
        {
          "indexed": true,
          "internalType": "uint256",
          "name": "jobId",
          "type": "uint256"
        },
        {
          "indexed": true,
          "internalType": "address",
          "name": "evaluator",
          "type": "address"
        }
      ],
      "name": "EvaluatorAdded",
      "type": "event"
    },
    {
      "anonymous": false,
      "inputs": [
        {
          "indexed": true,
          "internalType": "uint256",
          "name": "jobId",
          "type": "uint256"
        },
        {
          "indexed": true,
          "internalType": "address",
          "name": "requester",
          "type": "address"
        },
        {
          "indexed": true,
          "internalType": "address",
          "name": "provider",
          "type": "address"
        },
        {
          "indexed": false,
          "internalType": "uint256",
          "name": "budget",
          "type": "uint256"
        },
        {
          "indexed": false,
          "internalType": "uint256",
          "name": "expiresAt",
          "type": "uint256"
        }
      ],
      "name": "JobCreated",
      "type": "event"
    },
    {
      "anonymous": false,
      "inputs": [
        {
          "indexed": true,
          "internalType": "uint256",
          "name": "jobId",
          "type": "uint256"
        },
        {
          "indexed": true,
          "internalType": "enum ACP.JobPhase",
          "name": "oldPhase",
          "type": "uint8"
        },
        {
          "indexed": true,
          "internalType": "enum ACP.JobPhase",
          "name": "newPhase",
          "type": "uint8"
        },
        {
          "indexed": false,
          "internalType": "address",
          "name": "triggeredBy",
          "type": "address"
        }
      ],
      "name": "JobPhaseUpdated",
      "type": "event"
    },
    {
      "anonymous": false,
      "inputs": [
        {
          "indexed": true,
          "internalType": "uint256",
          "name": "jobId",
          "type": "uint256"
        },
        {
          "indexed": true,
          "internalType": "uint256",
          "name": "memoId",
          "type": "uint256"
        },
        {
          "indexed": true,
          "internalType": "address",
          "name": "sender",
          "type": "address"
        },
        {
          "indexed": false,
          "internalType": "enum ACP.MemoType",
          "name": "memoType",
          "type": "uint8"
        },
        {
          "indexed": false,
          "internalType": "bool",
          "name": "isPhaseTransition",
          "type": "bool"
        }
      ],
      "name": "MemoCreated",
      "type": "event"
    },
    {
      "anonymous": false,
      "inputs": [
        {
          "indexed": true,
          "internalType": "uint256",
          "name": "memoId",
          "type": "uint256"
        },
        {
          "indexed": true,
          "internalType": "address",
          "name": "signer",
          "type": "address"
        },
        {
          "indexed": false,
          "internalType": "enum ACP.SignatureStatus",
          "name": "status",
          "type": "uint8"
        },
        {
          "indexed": false,
          "internalType": "string",
          "name": "reason",
          "type": "string"
        }
      ],
      "name": "MemoSigned",
      "type": "event"
    },
    {
      "inputs": [
        {
          "internalType": "uint256",
          "name": "jobId",
          "type": "uint256"
        },
        {
          "internalType": "address",
          "name": "evaluator",
          "type": "address"
        }
      ],
      "name": "addEvaluator",
      "outputs": [],
      "stateMutability": "nonpayable",
      "type": "function"
    },
    {
      "inputs": [
        {
          "internalType": "enum ACP.JobPhase",
          "name": "",
          "type": "uint8"
        },
        {
          "internalType": "enum ACP.JobPhase",
          "name": "",
          "type": "uint8"
        }
      ],
      "name": "allowedTransitions",
      "outputs": [
        {
          "internalType": "bool",
          "name": "",
          "type": "bool"
        }
      ],
      "stateMutability": "view",
      "type": "function"
    },
    {
      "inputs": [
        {
          "internalType": "uint256",
          "name": "jobId",
          "type": "uint256"
        }
      ],
      "name": "cancelJob",
      "outputs": [],
      "stateMutability": "nonpayable",
      "type": "function"
    },
    {
      "inputs": [
        {
          "internalType": "address",
          "name": "provider",
          "type": "address"
        },
        {
          "internalType": "uint256",
          "name": "budget",
          "type": "uint256"
        },
        {
          "internalType": "uint8",
          "name": "requiredApprovals",
          "type": "uint8"
        },
        {
          "internalType": "uint256",
          "name": "expiresAt",
          "type": "uint256"
        }
      ],
      "name": "createJob",
      "outputs": [
        {
          "internalType": "uint256",
          "name": "",
          "type": "uint256"
        }
      ],
      "stateMutability": "payable",
      "type": "function"
    },
    {
      "inputs": [
        {
          "internalType": "uint256",
          "name": "jobId",
          "type": "uint256"
        },
        {
          "internalType": "enum ACP.MemoType",
          "name": "memoType",
          "type": "uint8"
        },
        {
          "internalType": "string",
          "name": "content",
          "type": "string"
        },
        {
          "internalType": "string",
          "name": "url",
          "type": "string"
        },
        {
          "internalType": "bytes32",
          "name": "verificationHash",
          "type": "bytes32"
        },
        {
          "internalType": "enum ACP.JobPhase",
          "name": "requestedPhase",
          "type": "uint8"
        },
        {
          "internalType": "bool",
          "name": "isSecured",
          "type": "bool"
        }
      ],
      "name": "createMemo",
      "outputs": [
        {
          "internalType": "uint256",
          "name": "",
          "type": "uint256"
        }
      ],
      "stateMutability": "nonpayable",
      "type": "function"
    },
    {
      "inputs": [
        {
          "internalType": "uint256",
          "name": "jobId",
          "type": "uint256"
        }
      ],
      "name": "getJob",
      "outputs": [
        {
          "components": [
            {
              "internalType": "uint256",
              "name": "id",
              "type": "uint256"
            },
            {
              "internalType": "address",
              "name": "requester",
              "type": "address"
            },
            {
              "internalType": "address",
              "name": "provider",
              "type": "address"
            },
            {
              "internalType": "uint256",
              "name": "budget",
              "type": "uint256"
            },
            {
              "internalType": "uint256",
              "name": "escrowAmount",
              "type": "uint256"
            },
            {
              "internalType": "uint256",
              "name": "amountReleased",
              "type": "uint256"
            },
            {
              "internalType": "enum ACP.JobPhase",
              "name": "phase",
              "type": "uint8"
            },
            {
              "internalType": "uint256",
              "name": "memoCount",
              "type": "uint256"
            },
            {
              "internalType": "uint8",
              "name": "evaluatorCount",
              "type": "uint8"
            },
            {
              "internalType": "uint8",
              "name": "requiredApprovals",
              "type": "uint8"
            },
            {
              "internalType": "uint256",
              "name": "createdAt",
              "type": "uint256"
            },
            {
              "internalType": "uint256",
              "name": "expiresAt",
              "type": "uint256"
            },
            {
              "internalType": "uint256",
              "name": "lastActivityAt",
              "type": "uint256"
            }
          ],
          "internalType": "struct ACP.Job",
          "name": "",
          "type": "tuple"
        }
      ],
      "stateMutability": "view",
      "type": "function"
    },
    {
      "inputs": [
        {
          "internalType": "uint256",
          "name": "jobId",
          "type": "uint256"
        }
      ],
      "name": "getJobEvaluators",
      "outputs": [
        {
          "internalType": "address[]",
          "name": "",
          "type": "address[]"
        }
      ],
      "stateMutability": "view",
      "type": "function"
    },
    {
      "inputs": [
        {
          "internalType": "uint256",
          "name": "jobId",
          "type": "uint256"
        }
      ],
      "name": "getJobMemos",
      "outputs": [
        {
          "components": [
            {
              "internalType": "uint256",
              "name": "id",
              "type": "uint256"
            },
            {
              "internalType": "uint256",
              "name": "jobId",
              "type": "uint256"
            },
            {
              "internalType": "address",
              "name": "sender",
              "type": "address"
            },
            {
              "internalType": "enum ACP.MemoType",
              "name": "memoType",
              "type": "uint8"
            },
            {
              "internalType": "string",
              "name": "content",
              "type": "string"
            },
            {
              "internalType": "string",
              "name": "url",
              "type": "string"
            },
            {
              "internalType": "bytes32",
              "name": "verificationHash",
              "type": "bytes32"
            },
            {
              "internalType": "enum ACP.JobPhase",
              "name": "requestedPhase",
              "type": "uint8"
            },
            {
              "internalType": "uint8",
              "name": "numApprovals",
              "type": "uint8"
            },
            {
              "internalType": "uint8",
              "name": "numRejections",
              "type": "uint8"
            },
            {
              "internalType": "bool",
              "name": "isSecured",
              "type": "bool"
            },
            {
              "internalType": "uint256",
              "name": "createdAt",
              "type": "uint256"
            },
            {
              "internalType": "bool",
              "name": "isPhaseTransition",
              "type": "bool"
            }
          ],
          "internalType": "struct ACP.Memo[]",
          "name": "",
          "type": "tuple[]"
        }
      ],
      "stateMutability": "view",
      "type": "function"
    },
    {
      "inputs": [
        {
          "internalType": "uint256",
          "name": "jobId",
          "type": "uint256"
        }
      ],
      "name": "getJobPhaseString",
      "outputs": [
        {
          "internalType": "string",
          "name": "",
          "type": "string"
        }
      ],
      "stateMutability": "view",
      "type": "function"
    },
    {
      "inputs": [
        {
          "internalType": "uint256",
          "name": "jobId",
          "type": "uint256"
        }
      ],
      "name": "getJobStats",
      "outputs": [
        {
          "internalType": "uint256",
          "name": "totalMemos",
          "type": "uint256"
        },
        {
          "internalType": "uint8",
          "name": "evaluatorCount",
          "type": "uint8"
        },
        {
          "internalType": "uint256",
          "name": "escrowAmount",
          "type": "uint256"
        },
        {
          "internalType": "uint256",
          "name": "daysRemaining",
          "type": "uint256"
        }
      ],
      "stateMutability": "view",
      "type": "function"
    },
    {
      "inputs": [
        {
          "internalType": "uint256",
          "name": "jobId",
          "type": "uint256"
        },
        {
          "internalType": "enum ACP.JobPhase",
          "name": "phase",
          "type": "uint8"
        }
      ],
      "name": "getMemosForPhase",
      "outputs": [
        {
          "components": [
            {
              "internalType": "uint256",
              "name": "id",
              "type": "uint256"
            },
            {
              "internalType": "uint256",
              "name": "jobId",
              "type": "uint256"
            },
            {
              "internalType": "address",
              "name": "sender",
              "type": "address"
            },
            {
              "internalType": "enum ACP.MemoType",
              "name": "memoType",
              "type": "uint8"
            },
            {
              "internalType": "string",
              "name": "content",
              "type": "string"
            },
            {
              "internalType": "string",
              "name": "url",
              "type": "string"
            },
            {
              "internalType": "bytes32",
              "name": "verificationHash",
              "type": "bytes32"
            },
            {
              "internalType": "enum ACP.JobPhase",
              "name": "requestedPhase",
              "type": "uint8"
            },
            {
              "internalType": "uint8",
              "name": "numApprovals",
              "type": "uint8"
            },
            {
              "internalType": "uint8",
              "name": "numRejections",
              "type": "uint8"
            },
            {
              "internalType": "bool",
              "name": "isSecured",
              "type": "bool"
            },
            {
              "internalType": "uint256",
              "name": "createdAt",
              "type": "uint256"
            },
            {
              "internalType": "bool",
              "name": "isPhaseTransition",
              "type": "bool"
            }
          ],
          "internalType": "struct ACP.Memo[]",
          "name": "",
          "type": "tuple[]"
        }
      ],
      "stateMutability": "view",
      "type": "function"
    },
    {
      "inputs": [
        {
          "internalType": "address",
          "name": "user",
          "type": "address"
        }
      ],
      "name": "getUserJobs",
      "outputs": [
        {
          "internalType": "uint256[]",
          "name": "",
          "type": "uint256[]"
        }
      ],
      "stateMutability": "view",
      "type": "function"
    },
    {
      "inputs": [
        {
          "internalType": "enum ACP.JobPhase",
          "name": "fromPhase",
          "type": "uint8"
        },
        {
          "internalType": "enum ACP.JobPhase",
          "name": "toPhase",
          "type": "uint8"
        }
      ],
      "name": "isPhaseTransitionAllowed",
      "outputs": [
        {
          "internalType": "bool",
          "name": "",
          "type": "bool"
        }
      ],
      "stateMutability": "view",
      "type": "function"
    },
    {
      "inputs": [
        {
          "internalType": "uint256",
          "name": "",
          "type": "uint256"
        },
        {
          "internalType": "address",
          "name": "",
          "type": "address"
        }
      ],
      "name": "jobActors",
      "outputs": [
        {
          "internalType": "address",
          "name": "addr",
          "type": "address"
        },
        {
          "internalType": "uint8",
          "name": "role",
          "type": "uint8"
        },
        {
          "internalType": "bool",
          "name": "isActive",
          "type": "bool"
        },
        {
          "internalType": "uint256",
          "name": "joinedAt",
          "type": "uint256"
        }
      ],
      "stateMutability": "view",
      "type": "function"
    },
    {
      "inputs": [
        {
          "internalType": "uint256",
          "name": "",
          "type": "uint256"
        },
        {
          "internalType": "uint256",
          "name": "",
          "type": "uint256"
        }
      ],
      "name": "jobEvaluators",
      "outputs": [
        {
          "internalType": "address",
          "name": "",
          "type": "address"
        }
      ],
      "stateMutability": "view",
      "type": "function"
    },
    {
      "inputs": [
        {
          "internalType": "uint256",
          "name": "",
          "type": "uint256"
        },
        {
          "internalType": "enum ACP.JobPhase",
          "name": "",
          "type": "uint8"
        },
        {
          "internalType": "uint256",
          "name": "",
          "type": "uint256"
        }
      ],
      "name": "jobMemosByPhase",
      "outputs": [
        {
          "internalType": "uint256",
          "name": "",
          "type": "uint256"
        }
      ],
      "stateMutability": "view",
      "type": "function"
    },
    {
      "inputs": [
        {
          "internalType": "uint256",
          "name": "",
          "type": "uint256"
        }
      ],
      "name": "jobs",
      "outputs": [
        {
          "internalType": "uint256",
          "name": "id",
          "type": "uint256"
        },
        {
          "internalType": "address",
          "name": "requester",
          "type": "address"
        },
        {
          "internalType": "address",
          "name": "provider",
          "type": "address"
        },
        {
          "internalType": "uint256",
          "name": "budget",
          "type": "uint256"
        },
        {
          "internalType": "uint256",
          "name": "escrowAmount",
          "type": "uint256"
        },
        {
          "internalType": "uint256",
          "name": "amountReleased",
          "type": "uint256"
        },
        {
          "internalType": "enum ACP.JobPhase",
          "name": "phase",
          "type": "uint8"
        },
        {
          "internalType": "uint256",
          "name": "memoCount",
          "type": "uint256"
        },
        {
          "internalType": "uint8",
          "name": "evaluatorCount",
          "type": "uint8"
        },
        {
          "internalType": "uint8",
          "name": "requiredApprovals",
          "type": "uint8"
        },
        {
          "internalType": "uint256",
          "name": "createdAt",
          "type": "uint256"
        },
        {
          "internalType": "uint256",
          "name": "expiresAt",
          "type": "uint256"
        },
        {
          "internalType": "uint256",
          "name": "lastActivityAt",
          "type": "uint256"
        }
      ],
      "stateMutability": "view",
      "type": "function"
    },
    {
      "inputs": [
        {
          "internalType": "uint256",
          "name": "",
          "type": "uint256"
        },
        {
          "internalType": "address",
          "name": "",
          "type": "address"
        }
      ],
      "name": "memoSignatures",
      "outputs": [
        {
          "internalType": "uint8",
          "name": "",
          "type": "uint8"
        }
      ],
      "stateMutability": "view",
      "type": "function"
    },
    {
      "inputs": [
        {
          "internalType": "uint256",
          "name": "",
          "type": "uint256"
        }
      ],
      "name": "memos",
      "outputs": [
        {
          "internalType": "uint256",
          "name": "id",
          "type": "uint256"
        },
        {
          "internalType": "uint256",
          "name": "jobId",
          "type": "uint256"
        },
        {
          "internalType": "address",
          "name": "sender",
          "type": "address"
        },
        {
          "internalType": "enum ACP.MemoType",
          "name": "memoType",
          "type": "uint8"
        },
        {
          "internalType": "string",
          "name": "content",
          "type": "string"
        },
        {
          "internalType": "string",
          "name": "url",
          "type": "string"
        },
        {
          "internalType": "bytes32",
          "name": "verificationHash",
          "type": "bytes32"
        },
        {
          "internalType": "enum ACP.JobPhase",
          "name": "requestedPhase",
          "type": "uint8"
        },
        {
          "internalType": "uint8",
          "name": "numApprovals",
          "type": "uint8"
        },
        {
          "internalType": "uint8",
          "name": "numRejections",
          "type": "uint8"
        },
        {
          "internalType": "bool",
          "name": "isSecured",
          "type": "bool"
        },
        {
          "internalType": "uint256",
          "name": "createdAt",
          "type": "uint256"
        },
        {
          "internalType": "bool",
          "name": "isPhaseTransition",
          "type": "bool"
        }
      ],
      "stateMutability": "view",
      "type": "function"
    },
    {
      "inputs": [],
      "name": "platformFee",
      "outputs": [
        {
          "internalType": "uint256",
          "name": "",
          "type": "uint256"
        }
      ],
      "stateMutability": "view",
      "type": "function"
    },
    {
      "inputs": [],
      "name": "platformOwner",
      "outputs": [
        {
          "internalType": "address",
          "name": "",
          "type": "address"
        }
      ],
      "stateMutability": "view",
      "type": "function"
    },
    {
      "inputs": [
        {
          "internalType": "uint256",
          "name": "memoId",
          "type": "uint256"
        },
        {
          "internalType": "bool",
          "name": "isApproved",
          "type": "bool"
        },
        {
          "internalType": "string",
          "name": "reason",
          "type": "string"
        }
      ],
      "name": "signMemo",
      "outputs": [],
      "stateMutability": "nonpayable",
      "type": "function"
    },
    {
      "inputs": [
        {
          "internalType": "address",
          "name": "newOwner",
          "type": "address"
        }
      ],
      "name": "transferPlatformOwnership",
      "outputs": [],
      "stateMutability": "nonpayable",
      "type": "function"
    },
    {
      "inputs": [
        {
          "internalType": "uint256",
          "name": "newFee",
          "type": "uint256"
        }
      ],
      "name": "updatePlatformFee",
      "outputs": [],
      "stateMutability": "nonpayable",
      "type": "function"
    },
    {
      "inputs": [
        {
          "internalType": "address",
          "name": "",
          "type": "address"
        },
        {
          "internalType": "uint256",
          "name": "",
          "type": "uint256"
        }
      ],
      "name": "userJobs",
      "outputs": [
        {
          "internalType": "uint256",
          "name": "",
          "type": "uint256"
        }
      ],
      "stateMutability": "view",
      "type": "function"
    }
  ],
  "bytecode": "0x60803461023057601f612d0538819003918201601f19168301916001600160401b03831184841017610235578084926020946040528339810103126102305751600955600a80546001600160a01b031916331790557fd2e9f3f008b9cbb8db1c4a131facda63ab64ab075a1a77064a17c38064055769805460ff1990811660019081179092557f9df0f1130baaf9831fe002174d6189491b54897c0714e1dc58ad37f5791ffbd080548216831790557ffcde62a4496e687f8660741e11ab72fe2a47ef35b4dea356e154e311e8b3544c80548216831790557f44725cf061729a83e75948358a45166aa4bd00359436e5d310faf556762fc75c80548216831790557f204a0a65557a6842e0fdf86bceb82fec1b655499ee834caa260f48eb4b09b7f580548216831790557f01a41f1353efe4ebc31555e07903e6a45ae3645389b1707e1c8d8e0ab37ebf7d80548216831790557f27c724c0dfd53c181748c6ebb646c9dff05b89c6625f230039bfc17d8f5ebf3d80548216831790557f761e6d43bb89243ed29c45393e59d31029cb041baccd45c54188a6f0031bbead80548216831790557f56395755416743bb2e82ba7350498bf2e610c13574a1d71ca6e5cd78a81b75ad805482168317905560066000527f72c6bfb7988af3a1efa6568f02a999bc52252641c659d85961ca3d372b57d5cf6020527fcaa1cf38deebc3e81baa7f3ab4ca845a7bca0e84136d6b0cee2a6cf1497bdade80549091169091179055604051612ab9908161024c8239f35b600080fd5b634e487b7160e01b600052604160045260246000fdfe6080604052600436101561001257600080fd5b60003560e01c8063046c15531461213057806307a3176c14611f035780630f8cfa8614611eb5578063180aedf314611de45780631b8d877514611d0d5780631dffa3dc14611b5757806326232a2e14611b3957806328c1775f14611aed5780633fa7276c14611a335780634abb307c1461189d5780634df8ccb114611874578063712ee07a14611331578063878d3b23146106a857806397556d7b14610e8d5780639a263a5f14610e42578063aa0b598814610dce578063ae8e9c0414610d7c578063b032f2b31461074c578063b7ca0e45146106d8578063b8bce44c146106a8578063bf22c457146104ad578063c17ff9d214610454578063dfbf8d33146102c9578063e8dfdf04146101c75763f18267801461012f57600080fd5b346101c25760203660031901126101c257608060043580600052600060205261015e6040600020541515612687565b600090815280602052604081209060078201549160ff60088201541691600a6004830154920154904282116000146101ba57506101a0620151809142906129ce565b04915b604051938452602084015260408301526060820152f35b9050916101a3565b600080fd5b346101c25760203660031901126101c2576004356000526001602052604060002080546001820154916002810154610201600383016124cc565b9160ff610210600483016124cc565b9361027e60058401549561027060068601549361025d86600860078a015499015416986040519c8d9c8d5260208d015260018060a01b03811660408d01528760608d019160a01c16612293565b6101a060808b01526101a08a0190612252565b9088820360a08a0152612252565b9460c087015261029360e08701838316612245565b818160081c16610100870152818160101c1661012087015260181c16151561014085015261016084015215156101808301520390f35b346101c25760203660031901126101c2576004358060005260006020526102f66040600020541515612687565b80600052600060205261031060076040600020015461287f565b906000600191600854925b83811115610335576040518061033187826122a0565b0390f35b806000526001602052816001604060002001541461035c575b6103579061295b565b61031b565b9161044c61035791846000526001602052604060002060ff600860405192610383846123d4565b805484526001810154602085015260028101546001600160a01b03811660408601526103b79060a01c841660608601612943565b6103c3600382016124cc565b60808501526103d4600482016124cc565b60a0850152600581015460c08501528260068201546103f882821660e0880161294f565b8181851c16610100870152818160101c1661012087015260181c1615156101408501526007810154610160850152015416151561018082015261043b828961292f565b52610446818861292f565b5061295b565b92905061034e565b346101c25760403660031901126101c25761046d6121ba565b6001600160a01b03166000908152600660205260409020805460243591908210156101c25760209161049e91612217565b90549060031b1c604051908152f35b346101c25760203660031901126101c2576004356040516104cd816123d4565b60008152602081016000905260408101600090526060810160009052608081016000905260a081016000905260c081016000905260e08101600090526101008101600090526101208101600090526101408101600090526101608101600090526101800160009052806000526000602052604060002054151561054f90612687565b6000526000602052604060002060405190610569826123d4565b8054825260018101546001600160a01b0390811660208401908152600283015490911660408401908152600383015460608501908152600484015460808601908152600585015460a08701908152600686015494959491929160c08801906105d49060ff168261294f565b60078601549160e089019283526008870154946101008a019460ff871686526101208b019660081c60ff1687526009890154976101408c01988952600a8a0154996101608d019a8b52600b01549a6101808d019b8c526040519c518d52600160a01b6001900390511660208d0152600160a01b6001900390511660408c01525160608b01525160808a01525160a08901525160c0880161067391612245565b5160e08701525160ff166101008601525160ff166101208501525161014084015251610160830152516101808201526101a090f35b346101c257602060ff6106cc6106c76106c03661246a565b91906121e6565b6121ff565b54166040519015158152f35b346101c25760403660031901126101c2576106f16121d0565b600435600052600260205260406000209060018060a01b0316600052602052608060406000206001815491015460ff6040519260018060a01b0381168452818160a01c16602085015260a81c16151560408301526060820152f35b346101c25760e03660031901126101c257600860243510156101c25760443567ffffffffffffffff81116101c257610788903690600401612413565b60643567ffffffffffffffff81116101c2576107a8903690600401612413565b9060a4359060078210156101c25760c43580151581036101c257600435600090815260026020908152604080832033845290915290205460a81c60ff1615610d3757600435600052600060205260406000209160ff6006840154166007811015610d215760048114159081610d15575b5015610cd05761088761082c60085461295b565b9485600855600096600760243514610cac575b6040519361084c856123d4565b878552600435602086015233604086015261086c60243560608701612943565b608085015260a084015260843560c084015260e0830161294f565b846101008201526101208101908582526101408101921515835261016081019042825261018081019360076024351485528688526001602052604088209382518555602083015160018601556002850160018060a01b0360018060a01b03604086015116166001600160601b0360a01b82541617815560608401516008811015610b0257815460ff60a01b191660a09190911b60ff60a01b1617905560808301518051600387019167ffffffffffffffff8211610bd757819061094a8454612492565b601f8111610c59575b506020908d601f8411600114610bf65792610beb575b50508160011b916000199060031b1c19161790555b6004850160a084015180519067ffffffffffffffff8211610bd75781906109a58454612492565b601f8111610b84575b506020908d601f8411600114610b215792610b16575b50508160011b916000199060031b1c19161790555b60c08301516005860155600685019260e08101516007811015610b025795610a9b958560209c95610a5260ff610aa09c978f9c8261010060089a610a2360409f94610a3a9561296a565b0151875461ff001916911660081b61ff0016178655565b51845462ff00001916911660101b62ff000016178355565b51151563ff00000082549160181b169063ff0000001916179055516007820155019051151560ff801983541691161790556004358152600588522060ff600686015416906121ff565b612652565b60078101610aae815461295b565b9055600b42910155604051610ac581602435612293565b600760243514838201528133917fb706ca24f3a5f17fe69645cbe808e5e32345fcb8bd60437f32a2a08f76424bdb604060043592a4604051908152f35b634e487b7160e01b8b52602160045260248bfd5b015190508c806109c4565b8581528281209350601f198516905b818110610b6c5750908460019594939210610b53575b505050811b0190556109d9565b015160001960f88460031b161c191690558c8080610b46565b92936020600181928786015181550195019301610b30565b909150838d5260208d20601f840160051c81019160208510610bcd575b849392918f91601f0160051c0191905b828210610bbf5750506109ae565b81558493506001018e610bb1565b9091508190610ba1565b634e487b7160e01b8c52604160045260248cfd5b015190508c80610969565b8581528281209350601f198516905b818110610c415750908460019594939210610c28575b505050811b01905561097e565b015160001960f88460031b161c191690558c8080610c1b565b92936020600181928786015181550195019301610c05565b909150838d5260208d20601f840160051c81019160208510610ca2575b849392918f91601f0160051c0191905b828210610c94575050610953565b81558493506001018e610c86565b9091508190610c76565b610ccb60ff610cc4846106c78360068c0154166121e6565b5416612982565b61083f565b60405162461bcd60e51b815260206004820152601d60248201527f4a6f6220697320636f6d706c65746564206f722063616e63656c6c65640000006044820152606490fd5b60069150141586610818565b634e487b7160e01b600052602160045260246000fd5b60405162461bcd60e51b815260206004820152601860248201527f4e6f7420617574686f72697a6564206a6f62206163746f7200000000000000006044820152606490fd5b346101c25760403660031901126101c2576024356004356000526003602052604060002080548210156101c257602091610db591612217565b905460405160039290921b1c6001600160a01b03168152f35b346101c25760203660031901126101c257600435610df760018060a01b03600a54163314612570565b6103e88111610e0557600955005b60405162461bcd60e51b81526020600482015260156024820152744665652063616e6e6f74206578636565642031302560581b6044820152606490fd5b346101c25760403660031901126101c257610e5b6121d0565b600435600052600460205260406000209060018060a01b0316600052602052602060ff60406000205416604051908152f35b60803660031901126101c257610ea16121ba565b6024356044359060ff82168092036101c257606435926001600160a01b03169081156112ec5780156112a757428411156112635780341061121e5782156111d957600093610ef060075461295b565b938460075560405190610f02826123d4565b858252856020830133815260408401878152606085018781526080860134815260a087018c815260c08801918d835260e08901938e85526101008a019e8f526101208a019889526101408a01954287526101608b01978c89526101808c0199428b52600052600060205260406000209b518c5560018060a01b0390511660018c019060018060a01b03166001600160601b0360a01b82541617905560018060a01b0390511660028b019060018060a01b03166001600160601b0360a01b8254161790555160038a0155516004890155516005880155519a60078c1015610d215760ff600b9661102993610ffa60209f60068c0161296a565b5160078a0155818060088b01945116168219845416178355511661ff0082549160081b169061ff001916179055565b51600985015551600a84015551910155604051611045816123b8565b3380825260008783018181526001604080860182815242606088019081528b865260028d52828620968652958c529381902095518654935194516001600160b01b03199094166001600160a01b03919091161760a09490941b60ff60a01b169390931791151560a81b60ff60a81b1691909117845591519290910191909155516110ce816123b8565b83815260018682018181526040808401838152426060860190815260008a815260028c528381208a82528c5283812096518754955193516001600160b01b03199096166001600160a01b03919091161760a09390931b60ff60a01b169290921793151560a81b60ff60a81b169390931785559151939092019290925533825260068752902061115e908590612652565b8260005260068552611174846040600020612652565b60405191825284820152827f9f708ef692516d5076ae0cb779688ef01c75caad86fb2e2fa1b80612ee7e64a460403393a4604051348152817f9a57bbb234b70fc26fbb5c8d65f00c0bba23b19c4a7bb1aedb26c7a04269f747843393a3604051908152f35b60405162461bcd60e51b815260206004820152601e60248201527f4174206c65617374206f6e6520617070726f76616c20726571756972656400006044820152606490fd5b60405162461bcd60e51b815260206004820152601a60248201527f496e73756666696369656e7420657363726f7720616d6f756e740000000000006044820152606490fd5b606460405162461bcd60e51b815260206004820152602060248201527f45787069726174696f6e206d75737420626520696e20746865206675747572656044820152fd5b60405162461bcd60e51b815260206004820152601d60248201527f427564676574206d7573742062652067726561746572207468616e20300000006044820152606490fd5b60405162461bcd60e51b815260206004820152601860248201527f496e76616c69642070726f7669646572206164647265737300000000000000006044820152606490fd5b346101c25760603660031901126101c25760243560043581151582036101c25760443567ffffffffffffffff81116101c257611371903690600401612413565b8160005260016020526040600020541561183957816000526001602052604060002090600182015492836000526002602052604060002060018060a01b03331660005260205260ff60406000205460a81c16156117fb57600081815260046020908152604080832033845290915290205460ff166117b65784156117ae576001945b6003861015610d215760008281526004602090815260408083203384529091529020805460ff191660ff88161790551561177b576114536006840161143e60ff825460081c1661262b565b61ff0082549160081b169061ff001916179055565b7f025ea2170c547df0c3936ffad2b46cf43ffca2c165f399327f74d11b2e6199c06040516000968152604060208201528061149333956040830190612252565b0390a360ff60088201541680611753575b6114ac578280f35b600660ff91015416818352826020526040832060068101906114e58360ff845416936114e060ff610cc4846106c7896121e6565b61296a565b600b42910155600781101561173f57600782101561173f578190837f82215893d7f37f1a9506b54d36e7a9180167f953d40a6d6845bba3f55bf2fdce6020604051338152a460048103611684575080825281602052604082209060048201918254908115611648576009548083029083820403611634578591826115706127106002940480966129ce565b96876005840155550191818080808860018060a01b0388541682821561162b575bf11561161e57801580156115e2575b505090546040519384526001600160a01b0316927f6244ed823ca6be0f11bc890c3fafcf3c29cb23420c14243642e930b5e07e6d0a9150602090a35b81808280f35b600a548392839283926001600160a01b0316908390611615575bf11561160a578385806115a0565b6040513d85823e3d90fd5b506108fc6115fc565b50604051903d90823e3d90fd5b506108fc611591565b634e487b7160e01b86526011600452602486fd5b60405162461bcd60e51b81526020600482015260146024820152734e6f20657363726f7720746f2072656c6561736560601b6044820152606490fd5b600614611692575b506115dc565b80825281602052604082209060048201805492831561170457846001925501838080808660018060a01b0386541682f11561160a57546040519283526001600160a01b0316917f6244ed823ca6be0f11bc890c3fafcf3c29cb23420c14243642e930b5e07e6d0a90602090a38161168c565b60405162461bcd60e51b8152602060048201526013602482015272139bc8195cd8dc9bddc81d1bc81c99599d5b99606a1b6044820152606490fd5b634e487b7160e01b84526021600452602484fd5b5060ff600682015460081c168284528360205260ff600860408620015460081c1611156114a4565b6117a96006840161179260ff825460101c1661262b565b62ff000082549160101b169062ff00001916179055565b611453565b6002946113f3565b60405162461bcd60e51b815260206004820152601860248201527f416c7265616479207369676e65642074686973206d656d6f00000000000000006044820152606490fd5b60405162461bcd60e51b81526020600482015260166024820152752737ba1030baba3437b934bd32b2103a379039b4b3b760511b6044820152606490fd5b60405162461bcd60e51b815260206004820152601360248201527213595b5bc8191bd95cc81b9bdd08195e1a5cdd606a1b6044820152606490fd5b346101c25760003660031901126101c257600a546040516001600160a01b039091168152602090f35b346101c25760403660031901126101c25760243560078110156101c2576118d390600435600052600560205260406000206121ff565b6040518082602082945493848152019060005260206000209260005b818110611a1a575050611904925003826123f1565b61190e815161287f565b9060005b8151811015611a0c57806119286001928461292f565b5160005281602052604060002060ff600860405192611946846123d4565b80548452858101546020850152611976836002830154888060a01b038116604088015260a01c1660608601612943565b611982600382016124cc565b6080850152611993600482016124cc565b60a0850152600581015460c08501528260068201546119b782821660e0880161294f565b8181851c16610100870152818160101c1661012087015260181c161515610140850152600781015461016085015201541615156101808201526119fa828661292f565b52611a05818561292f565b5001611912565b6040518061033185826122a0565b84548352600194850194869450602090930192016118ef565b346101c25760203660031901126101c2576001600160a01b03611a546121ba565b16600052600660205260406000206040518060208354918281520190819360005260206000209060005b818110611ad75750505081611a949103826123f1565b6040519182916020830190602084525180915260408301919060005b818110611abe575050500390f35b8251845285945060209384019390920191600101611ab0565b8254845260209093019260019283019201611a7e565b346101c25760203660031901126101c257610331611b25600435806000526000602052611b206040600020541515612687565b6126c8565b604051918291602083526020830190612252565b346101c25760003660031901126101c2576020600954604051908152f35b346101c25760203660031901126101c257600435806000526000602052611b8f60018060a01b036001604060002001541633146125d0565b80600052600060205260ff600660406000200154166007811015610d21578015908115611d02575b5015611cb25760009080825281602052604082206006810190611bed600660ff845416936114e060ff610cc4846106c7896121e6565b600b429101556007811015611c9e576006919250827f82215893d7f37f1a9506b54d36e7a9180167f953d40a6d6845bba3f55bf2fdce6020604051338152a460009080825281602052604082209060048201805492831561170457846001925501838080808660018060a01b0386541682f11561160a57546040519283526001600160a01b0316917f6244ed823ca6be0f11bc890c3fafcf3c29cb23420c14243642e930b5e07e6d0a90602090a380f35b634e487b7160e01b83526021600452602483fd5b60405162461bcd60e51b815260206004820152602260248201527f43616e6e6f742063616e63656c206a6f6220696e2063757272656e7420706861604482015261736560f01b6064820152608490fd5b600191501482611bb7565b346101c25760203660031901126101c257600435806000526000602052611d3a6040600020541515612687565b600052600360205260406000206040518060208354918281520190819360005260206000209060005b818110611dc55750505081611d799103826123f1565b6040519182916020830190602084525180915260408301919060005b818110611da3575050500390f35b82516001600160a01b0316845285945060209384019390920191600101611d95565b82546001600160a01b0316845260209093019260019283019201611d63565b346101c25760203660031901126101c25760043560005260006020526101a0604060002080549060018060a01b036001820154169060018060a01b0360028201541660ff60038301546004840154611e896005860154846006880154169060078801549360088901549560098a015498600b600a8c01549b01549b60206040519e8f908152015260408d015260608c015260808b015260a08a015260c0890190612245565b60e087015281811661010087015260081c16610120850152610140840152610160830152610180820152f35b346101c25760603660031901126101c25760243560078110156101c257611eee60443591600435600052600560205260406000206121ff565b80548210156101c25760209161049e91612217565b346101c25760403660031901126101c257600435611f1f6121d0565b90806000526000602052611f4460018060a01b036001604060002001541633146125d0565b6001600160a01b0382169182156120eb57611f5f90826129db565b6120a65780600052600360205260406000208054600160401b81101561209057611f8e91600182018155612217565b81549060031b9084821b9160018060a01b03901b1916179055806000526000602052600860406000200160ff611fc68183541661262b565b1660ff19825416179055604051611fdc816123b8565b8281526002602080830182815260016040808601828152426060880190815260008981529686528287208a8852865282872097518854955192516001600160b01b03199096166001600160a01b03919091161760a09290921b60ff60a01b169190911793151560a81b60ff60a81b1693909317865591519401939093556006905220612069908290612652565b7fb0e0c35ac8b8a3e8c01cc3a1fe12be60d0a2345939caf707012a28caea19a9a1600080a3005b634e487b7160e01b600052604160045260246000fd5b60405162461bcd60e51b815260206004820152601760248201527f4576616c7561746f7220616c72656164792061646465640000000000000000006044820152606490fd5b60405162461bcd60e51b815260206004820152601960248201527f496e76616c6964206576616c7561746f722061646472657373000000000000006044820152606490fd5b346101c25760203660031901126101c2576121496121ba565b600a5490612161336001600160a01b03841614612570565b6001600160a01b0316908115612181576001600160a01b03191617600a55005b60405162461bcd60e51b815260206004820152601160248201527024b73b30b634b2103732bb9037bbb732b960791b6044820152606490fd5b600435906001600160a01b03821682036101c257565b602435906001600160a01b03821682036101c257565b6007811015610d2157600052600b602052604060002090565b906007811015610d2157600052602052604060002090565b805482101561222f5760005260206000200190600090565b634e487b7160e01b600052603260045260246000fd5b906007821015610d215752565b919082519283825260005b84811061227e575050826000602080949584010152601f8019910116010190565b8060208092840101518282860101520161225d565b906008821015610d215752565b602081016020825282518091526040820191602060408360051b8301019401926000915b8383106122d357505050505090565b9091929394602080600192603f19858203018652885190815181528282015183820152848060a01b03604083015116604082015261231960608301516060830190612293565b6101808061234d61233b60808601516101a060808701526101a0860190612252565b60a086015185820360a0870152612252565b9360c081015160c085015261236a60e082015160e0860190612245565b60ff6101008201511661010085015260ff61012082015116610120850152610140810151151561014085015261016081015161016085015201511515910152970193019301919392906122c4565b6080810190811067ffffffffffffffff82111761209057604052565b6101a0810190811067ffffffffffffffff82111761209057604052565b90601f8019910116810190811067ffffffffffffffff82111761209057604052565b81601f820112156101c25780359067ffffffffffffffff82116120905760405192612448601f8401601f1916602001856123f1565b828452602083830101116101c257816000926020809301838601378301015290565b60409060031901126101c25760043560078110156101c2579060243560078110156101c25790565b90600182811c921680156124c2575b60208310146124ac57565b634e487b7160e01b600052602260045260246000fd5b91607f16916124a1565b90604051918260008254926124e084612492565b808452936001811690811561254e5750600114612507575b50612505925003836123f1565b565b90506000929192526020600020906000915b81831061253257505090602061250592820101386124f8565b6020919350806001915483858901015201910190918492612519565b90506020925061250594915060ff191682840152151560051b820101386124f8565b1561257757565b60405162461bcd60e51b815260206004820152602b60248201527f4f6e6c7920706c6174666f726d206f776e65722063616e20706572666f726d2060448201526a3a3434b99030b1ba34b7b760a91b6064820152608490fd5b156125d757565b60405162461bcd60e51b815260206004820152602660248201527f4f6e6c79207265717565737465722063616e20706572666f726d20746869732060448201526530b1ba34b7b760d11b6064820152608490fd5b60ff1660ff811461263c5760010190565b634e487b7160e01b600052601160045260246000fd5b8054600160401b8110156120905761266f91600182018155612217565b819291549060031b91821b91600019901b1916179055565b1561268e57565b60405162461bcd60e51b8152602060048201526012602482015271129bd888191bd95cc81b9bdd08195e1a5cdd60721b6044820152606490fd5b600052600060205260ff600660406000200154166007811015610d21578015612841576000600182146128155750600281146127ed576000600382146127c2575060048114612799576000906005811461277157600691501461274a576040516127336040826123f1565b60078152662aa725a727aba760c91b602082015290565b6040516127586040826123f1565b600981526810d05390d15313115160ba1b602082015290565b50506040516127816040826123f1565b6008815267111254d41555115160c21b602082015290565b506040516127a86040826123f1565b600a81526921a7a6a82622aa24a7a760b11b602082015290565b505060408051906127d390826123f1565b600a81526922ab20a62aa0aa24a7a760b11b602082015290565b506040516127fc6040826123f1565b600981526822ac22a1aaaa24a7a760b91b602082015290565b5050604080519061282690826123f1565b600b81526a2722a3a7aa24a0aa24a7a760a91b602082015290565b506040516128506040826123f1565b6007815266149154555154d560ca1b602082015290565b67ffffffffffffffff81116120905760051b60200190565b9061288982612867565b61289660405191826123f1565b82815280926128a7601f1991612867565b019060005b8281106128b857505050565b6020906040516128c7816123d4565b60008152600083820152600060408201526000606082015260606080820152606060a0820152600060c0820152600060e082015260006101008201526000610120820152600061014082015260006101608201526000610180820152828285010152016128ac565b805182101561222f5760209160051b010190565b6008821015610d215752565b6007821015610d215752565b600019811461263c5760010190565b906007811015610d215760ff80198354169116179055565b1561298957565b60405162461bcd60e51b815260206004820152601860248201527f496e76616c6964207068617365207472616e736974696f6e00000000000000006044820152606490fd5b9190820391821161263c57565b60005260036020526040600020906040518083602082955493848152019060005260206000209260005b818110612a61575050612a1a925003836123f1565b60005b8251811015612a59576001600160a01b03612a38828561292f565b51166001600160a01b03831614612a5157600101612a1d565b505050600190565b505050600090565b84546001600160a01b0316835260019485019487945060209093019201612a0556fea2646970667358221220599bd1b08f27fd42e1dc2911abbc25b8375c4fe09107bed258a4bd6e9b866cdc64736f6c634300081c0033",
  "linkReferences": {},
  "deployedLinkReferences": {}
}