{
  "_format": "hh-sol-artifact-1",
  "contractName": "Deal",
  "sourceName": "contracts/Deal.sol",
  "abi": [
    {
      "inputs": [
        {
          "internalType": "address",
          "name": "_buyer",
          "type": "address"
        },
        {
          "internalType": "address",
          "name": "_seller",
          "type": "address"
        },
        {
          "internalType": "address",
          "name": "_evaluatorAddress",
          "type": "address"
        },
        {
          "internalType": "uint256",
          "name": "_limitationDate",
          "type": "uint256"
        }
      ],
      "stateMutability": "nonpayable",
      "type": "constructor"
    },
    {
      "inputs": [],
      "name": "arbitrationFlag",
      "outputs": [
        {
          "internalType": "bool",
          "name": "",
          "type": "bool"
        }
      ],
      "stateMutability": "view",
      "type": "function"
    },
    {
      "inputs": [],
      "name": "buyer",
      "outputs": [
        {
          "internalType": "address",
          "name": "",
          "type": "address"
        }
      ],
      "stateMutability": "view",
      "type": "function"
    },
    {
      "inputs": [],
      "name": "closeDeal",
      "outputs": [],
      "stateMutability": "nonpayable",
      "type": "function"
    },
    {
      "inputs": [],
      "name": "deposit",
      "outputs": [],
      "stateMutability": "payable",
      "type": "function"
    },
    {
      "inputs": [],
      "name": "evaluatorAddress",
      "outputs": [
        {
          "internalType": "address",
          "name": "",
          "type": "address"
        }
      ],
      "stateMutability": "view",
      "type": "function"
    },
    {
      "inputs": [
        {
          "internalType": "address",
          "name": "winner",
          "type": "address"
        }
      ],
      "name": "handleArbitrationResults",
      "outputs": [],
      "stateMutability": "nonpayable",
      "type": "function"
    },
    {
      "inputs": [],
      "name": "limitationDate",
      "outputs": [
        {
          "internalType": "uint256",
          "name": "",
          "type": "uint256"
        }
      ],
      "stateMutability": "view",
      "type": "function"
    },
    {
      "inputs": [],
      "name": "seller",
      "outputs": [
        {
          "internalType": "address",
          "name": "",
          "type": "address"
        }
      ],
      "stateMutability": "view",
      "type": "function"
    },
    {
      "inputs": [],
      "name": "startArbitration",
      "outputs": [],
      "stateMutability": "nonpayable",
      "type": "function"
    }
  ],
  "bytecode": "0x608060405234801561001057600080fd5b50604051610ca1380380610ca1833981810160405281019061003291906101b8565b836000806101000a81548173ffffffffffffffffffffffffffffffffffffffff021916908373ffffffffffffffffffffffffffffffffffffffff16021790555082600160006101000a81548173ffffffffffffffffffffffffffffffffffffffff021916908373ffffffffffffffffffffffffffffffffffffffff16021790555081600260006101000a81548173ffffffffffffffffffffffffffffffffffffffff021916908373ffffffffffffffffffffffffffffffffffffffff160217905550806003819055506000600160146101000a81548160ff0219169083151502179055505050505061021f565b600080fd5b600073ffffffffffffffffffffffffffffffffffffffff82169050919050565b600061014f82610124565b9050919050565b61015f81610144565b811461016a57600080fd5b50565b60008151905061017c81610156565b92915050565b6000819050919050565b61019581610182565b81146101a057600080fd5b50565b6000815190506101b28161018c565b92915050565b600080600080608085870312156101d2576101d161011f565b5b60006101e08782880161016d565b94505060206101f18782880161016d565b93505060406102028782880161016d565b9250506060610213878288016101a3565b91505092959194509250565b610a738061022e6000396000f3fe6080604052600436106100865760003560e01c80637150d8ae116100595780637150d8ae1461012157806372e0576a1461014c57806388f2424b14610177578063d0e30db01461018e578063dadd27701461019857610086565b806308551a531461008b5780630fe70189146100b657806335d4daaa146100cd5780634598fef8146100f8575b600080fd5b34801561009757600080fd5b506100a06101c3565b6040516100ad9190610629565b60405180910390f35b3480156100c257600080fd5b506100cb6101e9565b005b3480156100d957600080fd5b506100e2610341565b6040516100ef919061065f565b60405180910390f35b34801561010457600080fd5b5061011f600480360381019061011a91906106ab565b610354565b005b34801561012d57600080fd5b50610136610458565b6040516101439190610629565b60405180910390f35b34801561015857600080fd5b5061016161047c565b60405161016e9190610629565b60405180910390f35b34801561018357600080fd5b5061018c6104a2565b005b610196610552565b005b3480156101a457600080fd5b506101ad6105e2565b6040516101ba91906106f1565b60405180910390f35b600160009054906101000a900473ffffffffffffffffffffffffffffffffffffffff1681565b60008054906101000a900473ffffffffffffffffffffffffffffffffffffffff1673ffffffffffffffffffffffffffffffffffffffff163373ffffffffffffffffffffffffffffffffffffffff1614806102905750600160009054906101000a900473ffffffffffffffffffffffffffffffffffffffff1673ffffffffffffffffffffffffffffffffffffffff163373ffffffffffffffffffffffffffffffffffffffff16145b6102cf576040517f08c379a00000000000000000000000000000000000000000000000000000000081526004016102c69061078f565b60405180910390fd5b60001515600160149054906101000a900460ff16151514610325576040517f08c379a000000000000000000000000000000000000000000000000000000000815260040161031c90610821565b60405180910390fd5b60018060146101000a81548160ff021916908315150217905550565b600160149054906101000a900460ff1681565b600260009054906101000a900473ffffffffffffffffffffffffffffffffffffffff1673ffffffffffffffffffffffffffffffffffffffff163373ffffffffffffffffffffffffffffffffffffffff16146103e4576040517f08c379a00000000000000000000000000000000000000000000000000000000081526004016103db906108b3565b60405180910390fd5b60011515600160149054906101000a900460ff1615151461043a576040517f08c379a00000000000000000000000000000000000000000000000000000000081526004016104319061091f565b60405180910390fd5b6000600160146101000a81548160ff02191690831515021790555050565b60008054906101000a900473ffffffffffffffffffffffffffffffffffffffff1681565b600260009054906101000a900473ffffffffffffffffffffffffffffffffffffffff1681565b6003544210156104e7576040517f08c379a00000000000000000000000000000000000000000000000000000000081526004016104de906109b1565b60405180910390fd5b600160009054906101000a900473ffffffffffffffffffffffffffffffffffffffff1673ffffffffffffffffffffffffffffffffffffffff166108fc479081150290604051600060405180830381858888f1935050505015801561054f573d6000803e3d6000fd5b50565b60008054906101000a900473ffffffffffffffffffffffffffffffffffffffff1673ffffffffffffffffffffffffffffffffffffffff163373ffffffffffffffffffffffffffffffffffffffff16146105e0576040517f08c379a00000000000000000000000000000000000000000000000000000000081526004016105d790610a1d565b60405180910390fd5b565b60035481565b600073ffffffffffffffffffffffffffffffffffffffff82169050919050565b6000610613826105e8565b9050919050565b61062381610608565b82525050565b600060208201905061063e600083018461061a565b92915050565b60008115159050919050565b61065981610644565b82525050565b60006020820190506106746000830184610650565b92915050565b600080fd5b61068881610608565b811461069357600080fd5b50565b6000813590506106a58161067f565b92915050565b6000602082840312156106c1576106c061067a565b5b60006106cf84828501610696565b91505092915050565b6000819050919050565b6106eb816106d8565b82525050565b600060208201905061070660008301846106e2565b92915050565b600082825260208201905092915050565b7f4f6e6c7920746865206275796572206f722073656c6c65722063616e2073746160008201527f7274206172626974726174696f6e000000000000000000000000000000000000602082015250565b6000610779602e8361070c565b91506107848261071d565b604082019050919050565b600060208201905081810360008301526107a88161076c565b9050919050565b7f4172626974726174696f6e20697320616c726561647920696e2070726f67726560008201527f7373000000000000000000000000000000000000000000000000000000000000602082015250565b600061080b60228361070c565b9150610816826107af565b604082019050919050565b6000602082019050818103600083015261083a816107fe565b9050919050565b7f4f6e6c7920746865206576616c7561746f722063616e2068616e646c6520617260008201527f626974726174696f6e20726573756c7473000000000000000000000000000000602082015250565b600061089d60318361070c565b91506108a882610841565b604082019050919050565b600060208201905081810360008301526108cc81610890565b9050919050565b7f4172626974726174696f6e206973206e6f7420696e2070726f67726573730000600082015250565b6000610909601e8361070c565b9150610914826108d3565b602082019050919050565b60006020820190508181036000830152610938816108fc565b9050919050565b7f546865206c696d69746174696f6e206461746520686173206e6f74206265656e60008201527f2072656163686564000000000000000000000000000000000000000000000000602082015250565b600061099b60288361070c565b91506109a68261093f565b604082019050919050565b600060208201905081810360008301526109ca8161098e565b9050919050565b7f4f6e6c7920746865206275796572206465706f7369747320657363726f770000600082015250565b6000610a07601e8361070c565b9150610a12826109d1565b602082019050919050565b60006020820190508181036000830152610a36816109fa565b905091905056fea264697066735822122064c76cb4f480b2ef66a1c2062448dd07d5fdaa534a7e803de0cc10da26e5c27364736f6c634300081c0033",
  "linkReferences": {},
  "deployedLinkReferences": {}
}